:020000040000FA
:100000000A128A11EE2F00308A000408840A82073F
:1000100000346434693467346934743465342034AA
:100020006F34203461346E34673475346C346F341B
:100030003A340D340A340034683465346C346C342A
:100040006F342C3477346F3472346C34643421342C
:100050000D340A3400346D346F3474346F347234B8
:10006000203465347334713420340D340A34003450
:100070006D346F3474346F347234203464346934C2
:10008000723420340D340A340034653473347134DE
:1000900020346F347534203464346934723400345D
:1000F200F00070088312031399007F2883160313FC
:10010200981C842885287F288628080086348E3407
:1001120082348234823482348934803480340834A4
:1001220004340234013401340234043408341F30FC
:100132008316031399001812831203139817831658
:100142000313071787178312031318168316031353
:10015200981608007E088A007F0882000A128A1117
:10016200AB200A128A118000840A04087D06031952
:100172000034FF0A0319FE0AAF28F101F201F3016C
:10018200831203138C1EC628C728DE28D528D5283B
:100192000130F0007008F20765307202031CD228A9
:1001A200D328D528DA28DA288C1ED828D928C928B5
:1001B200DA281A08F0007008F3007308E028080033
:1001C200F300F201F6287208730784000A128A11FA
:1001D20003200A128A110A128A1179200A128A113C
:1001E2000130F1007108F207F628720873078400E3
:1001F2000A128A1103200A128A11003A031D0229E7
:100202000329E42804290800F401F5010829701CD7
:100212000B290C2912297208F4070318F50A73082E
:10022200F50701300310F20DF30DFF3E031D1329F4
:1002320001300310F10CF00CFF3E031D1A29700867
:100242007104031D25292629082927297508F1008B
:100252007408F0002C290800F800F401F501700878
:10026200F200F3017208F6007308F7003829781CCF
:100272003B293C2942297608F4070318F50A770836
:10028200F50701300310F60DF70DFF3E031D43295C
:100292000310F80C7808031D4F29502938295129D9
:1002A2007508F1007408F000562908008312031340
:1002B2004508F0004608F100F201F30100300A128D
:1002C2008A1165220A128A11730883120313A70086
:1002D2007208A6007108A5007008A4004030A300AF
:1002E200B630A2000B30A1007830A0000A128A11A9
:1002F20079240A128A11831203132308BD002208EB
:10030200BC002108BB002008BA000A128A11C921C8
:100312000A128A11831203133B08C6003A08C50069
:10032200CA01CB01BD294708031998299929A12996
:100332004A0803395D3E8400831300088800A92916
:100342004A080339613E8400831300088800A92902
:10035200413083120313C900ED30C800C80BAF2926
:10036200C90BAF29B429013083120313CA0703183A
:10037200CB0A0030CB07BD2946084B02031DC32917
:1003820045084A02031CC629C7299429C82908001E
:10039200831203133A08BE003B08BF003C08C000AA
:1003A2003D08C1000310400D410DC2004208C400C7
:1003B2004408031DDD29DE29E8290030BD00003094
:1003C200BC000030BB000030BA00642A642A3A083C
:1003D200BE003B08BF003C08C0003D08C1001F3002
:1003E2000310C10CC00CBF0CBE0CFF3E031DF12953
:1003F2003E08C2004208C300BC17FF30BA05FF30F6
:10040200BB05FF30BC050030BD059630C402C41FD9
:100412000B2A0C2A312A4408803A973E0318122AE2
:10042200132A1E2A0030BD000030BC000030BB0081
:100432000030BA00642A642A1E2A01300310BD0C5F
:10044200BC0CBB0CBA0CFF3E031D1F2A0130BE00C0
:100452003E08C407031D2E2A2F2A1E2A542A542A74
:1004620020304402031C362A372A4D2A0030BD00B0
:100472000030BC000030BB000030BA00642A642A9D
:100482004D2A0130BE000310BA0DBB0DBC0DBD0DCF
:10049200BE0B442A0130C4024408031D512A522AC9
:1004A200422A542A542A43080319582A592A642AE8
:1004B200BA09BB09BC09BD09BA0A0319BB0A031967
:1004C200BC0A0319BD0A0800F800780803196A2A51
:1004D2006B2A7F2AF31F6E2A6F2A7F2A7009FA007D
:1004E2007109FB007209FC007309FD00FA0A031985
:1004F200FB0A0319FC0A0319FD0A872A7308FD0087
:100502007208FC007108FB007008FA00730872049C
:1005120071047004031D8E2A8F2A992A0030F30079
:100522000030F2000030F1000030F000262B262BC4
:100532009630F4007408F900AC2A0130F400740813
:10054200F90701300310FD0CFC0CFB0CFA0CFF3E0A
:10055200031DA32AAC2AFE307D05031DB12AB22A4F
:100562009E2ACF2ACF2A0130F4007408F9070130FD
:10057200FA07003003180130FB070030031801307E
:10058200FC07003003180130FD0701300310FD0C99
:10059200FC0CFB0CFA0CFF3E031DC72AFF307D0545
:1005A200031DD42AD52AB42AE32AE32A0130F90208
:1005B2000130F4000310FA0DFB0DFC0DFD0DF40BE0
:1005C200DB2AE32AFC1BE62AE72AEE2A023079021A
:1005D2000318EC2AED2AD72AEE2A7918F12AF22AF0
:1005E200FA2AFF30FA05FF30FB057F30FC05FF30A9
:1005F200FD050310F90C7908F400F501F601F70185
:1006020018300310F40DF50DF60DF70DFF3E031D26
:10061200022B7408FA047508FB047608FC047708B8
:10062200FD0478080319162B172B1D2BF31F1A2B09
:100632001B2B1D2BFD171D2B7D08F3007C08F200E0
:100642007B08F1007A08F000262B08000A128A11B2
:1006520098200A128A1114300A128A11E1200A1211
:100662008A1183120313CE01CF01D00101300A1285
:100672008A11E1200A128A11B32B0A128A11BE20B2
:100682000A128A1183120313CC004C08D1003030B5
:100692005102031C4D2B4E2BB32B3A30510203183F
:1006A200532B542BB32B51080A128A1179200A12A8
:1006B2008A11831203135008031D602B612B782BC0
:1006C2005108D03EF000FF3003180030F1006430D2
:1006D200F2000030F3000A128A1105210A128A116F
:1006E200710883120313CF007008CE00782B5003D9
:1006F200031D7C2B7D2B982B5108D03EF000FF3040
:1007020003180030F1000A30F2000030F3000A1240
:100712008A1105210A128A11831203134E087007E7
:10072200CE004F0803184F0A7107CF00982B0230F2
:100732005006031D9D2B9E2BAD2B51084E07CC005E
:100742004F0803184F0ACD004C08D03ECE004D088A
:100752000318013EFF3ECF000130CC004C08D00709
:10076200B32BB32B0330831203135002031CBA2B97
:10077200BB2B3E2BBC2B831603138801831203135E
:1007820088012D300A128A11E1200A128A113D30A5
:100792000A128A11E1200A128A1183120313D0016C
:1007A2002D300A128A11E1200A128A116E2C0A12C5
:1007B2008A11BE200A128A1183120313CC00CD01C2
:1007C2004C08D2004D08D3000030530230300319D8
:1007D2005202031CED2BEE2B6E2C003053023230F2
:1007E200031952020318F62BF72B6E2C52080A1229
:1007F2008A1179200A128A118312031352085304B0
:10080200031D042C052C1D2C5208D03EF000530869
:100812000318013EFF3EF1006430F2000030F300A5
:100822000A128A1105210A128A117108831203130E
:10083200CF007008CE001D2C52035304031D222C3E
:10084200232C2F2C4F08C6004E08C500C701C70A2B
:100852000A128A1157210A128A112F2C013083128F
:100862000313CC004C08D007303052065304031D4A
:100872003B2C3C2C4F2C23300A128A11E1200A1205
:100882008A11831203134F08C6004E08C500C70120
:100892000A128A1157210A128A114F2C31308312FF
:1008A200031352065304031D572C582C6E2C303060
:1008B2000A128A11E1200A128A11831203134F08C5
:1008C200C6004E08C500C701C70A0A128A1157217D
:1008D2000A128A116E2C6E2C6E2C8312031350088E
:1008E2000319742C752CD82B762C0A128A11002825
:1008F2008312031323088039A8002808AD002308B7
:10090200A8002807A9002908B300A21F892C8A2C55
:100912008C2C33148C2C33080319902C912CA12C81
:10092200330A031D952C962C9F2C0030A300003017
:10093200A2000030A1000030A0009F2CA217AA2C18
:100942000030A3000030A2000030A1000030A0005F
:10095200AA2C27088039A8002808AD062708A80075
:100962002807A9002908B200A61FB82CB92CBB2C55
:100972003214BB2C32080319BF2CC02CD02C320AE3
:10098200031DC42CC52CCE2C0030A7000030A600BD
:100992000030A5000030A400CE2CA617D92C0030C0
:1009A200A7000030A6000030A5000030A400D92C1A
:1009B20032080319DD2CDE2CE42C3308031DE22C53
:1009C200E32CEE2CE42C0030A3000030A200003017
:1009D200A1000030A000ED2FED2F2008A80028086C
:1009E200F00026080A128A112D210A128A117108B2
:1009F20083120313B9007008B8003808A800A901CF
:100A0200AA01AB012B08B1002A08B0002908AF00E7
:100A12002808AE003908A800A901AA01AB012B08D9
:100A2200B7002A08B6002908B5002808B400210832
:100A3200A8002808F00025080A128A112D210A129E
:100A42008A11710883120313B9007008B8003808BC
:100A5200A800A901AA01AB012808AE0729080311C1
:100A62000318013E0319362DAF072A080311031894
:100A7200013E03193D2DB0072B0803110318013E57
:100A82000319442DB1073908A800A901AA01AB0135
:100A92002808B407290803110318013E0319522D2F
:100AA200B5072A0803110318013E0319592DB60789
:100AB2002B0803110318013E0319602DB707220802
:100AC200A8002808F00024080A128A112D210A120F
:100AD2008A11710883120313B9007008B80038082C
:100AE200A800A901AA01AB012808AE072908031131
:100AF2000318013E03197E2DAF072A0803110318BC
:100B0200013E0319852DB0072B0803110318013E7E
:100B120003198C2DB1073908A800A901AA01AB015C
:100B22002808B407290803110318013E03199A2D56
:100B3200B5072A0803110318013E0319A12DB607B0
:100B42002B0803110318013E0319A82DB70708301B
:100B5200A8000310AE0DAF0DB00DB10DA80BAA2D5C
:100B62002108A8002808F00024080A128A112D2161
:100B72000A128A11710883120313B9007008B800AF
:100B82003808A8003908A900AA01AB012808AE0755
:100B9200290803110318013E0319D02DAF072A08B3
:100BA20003110318013E0319D72DB0072B080311B7
:100BB2000318013E0319DE2DB1072008A8002808FA
:100BC200F00025080A128A112D210A128A117108D1
:100BD20083120313B9007008B8003808A800390856
:100BE200A900AA01AB012808AE07290803110318BE
:100BF200013E0319FD2DAF072A0803110318013E18
:100C02000319042EB0072B0803110318013E031920
:100C12000B2EB1070830A8000310AE0DAF0DB00DBA
:100C2200B10DA80B0D2E2008A8002808F0002408FA
:100C32000A128A112D210A128A11710883120313D2
:100C4200B9007008B8003808A8003908A900AA013C
:100C5200AB012808AE07290803110318013E031946
:100C6200332EAF072A0803110318013E03193A2E47
:100C7200B0072B0803110318013E0319412EB107D7
:100C82002108A8002808F00026080A128A112D213E
:100C92000A128A11710883120313B9007008B8008E
:100CA2003808A8003908A900AA01AB012808B4072E
:100CB200290803110318013E0319602EB5072A08FB
:100CC20003110318013E0319672EB6072B080311FF
:100CD2000318013E03196E2EB7072208A800280840
:100CE200F00025080A128A112D210A128A117108B0
:100CF20083120313B9007008B8003808A800390835
:100D0200A900AA01AB012808B40729080311031896
:100D1200013E03198D2EB5072A0803110318013E5F
:100D22000319942EB6072B0803110318013E031969
:100D32009B2EB7072208A8002808F00026080A12EE
:100D42008A112D210A128A11710883120313B90024
:100D52007008B8003808A8003908A900AA01AB0138
:100D620008300310A80DA90DAA0DAB0DFF3E031DFF
:100D7200B22E2808B407290803110318013E0319EB
:100D8200C32EB5072A0803110318013E0319CA2E00
:100D9200B6072B0803110318013E0319D12EB7071A
:100DA2002E08A8002F08A9003008AA003108AB00BD
:100DB20018300310AB0CAA0CA90CA80CFF3E031DA3
:100DC200DA2E2808B407290803110318013E031973
:100DD200EB2EB5072A0803110318013E0319F22E60
:100DE200B6072B0803110318013E0319F92EB707A2
:100DF2000830A8000310AE0DAF0DB00DB10DA80B59
:100E0200FB2E33083207A800A901A90D2808823E4B
:100E1200B80029080318013EFF3EB9002F2F013008
:100E2200A8000310B40DB50DB60DB70DA80B122F07
:100E3200B11F1C2F1D2F1F2F34141F2F0130A8008C
:100E42000310AE0DAF0DB00DB10DA80B212FFF3069
:100E5200B8070318B90AFF30B9072F2FB61F322F70
:100E6200332F102F342FB201B11F382F392F592FA2
:100E7200FF302E05A800FF302F05A900FF303005F6
:100E8200AA007F303105AB002B082A04290428046C
:100E920003194C2F4D2F502FB201B20A592F341C77
:100EA200532F542F592FB201B20A592F592F592FAC
:100EB200320803195D2F5E2F912F0130B4070030E5
:100EC20003180130B507003003180130B6070030AF
:100ED20003180130B707371C6F2F702F912F34087A
:100EE200A8003508A9003608AA003708AB0001306F
:100EF200AC002B0DAB0CAA0CA90CA80CAC0B7A2FD6
:100F02002B08B7002A08B6002908B5002808B40043
:100F12000130B8070318B90A0030B907912F912F91
:100F22003908803AFF0080307F02031D9A2FFF307C
:100F32003802031C9D2F9E2FA92F7F30831203138B
:100F4200B7008030B6000030B5000030B400E02FAA
:100F5200831203133908803AFF0080307F02031D99
:100F6200B42F013038020318B72FB82FC42F003026
:100F720083120313B7000030B6000030B500003012
:100F8200B400AD01E02F831203133808A80028082B
:100F9200B300FF30B405FF30B5057F30B605003031
:100FA200B705331CD52FD62FD82FB617D82F330815
:100FB200A8000310280CA9002908B700E02F2D086B
:100FC200A8002808B7043708A3003608A20035088D
:100FD200A1003408A000ED2F080083136530FD0046
:100FE2000030FE008730FF00543084000A128A115C
:0E0FF200AF200A128A1183010A128A11272BDE
:04400E00C2E0FFFF0E
:00000001FF
